{
  "_format": "hh-sol-artifact-1",
  "contractName": "DiplomaRegistry",
  "sourceName": "contracts/DiplomaRegistry.sol",
  "abi": [
    {
      "inputs": [],
      "stateMutability": "nonpayable",
      "type": "constructor"
    },
    {
      "anonymous": false,
      "inputs": [
        {
          "indexed": true,
          "internalType": "bytes32",
          "name": "certId",
          "type": "bytes32"
        },
        {
          "indexed": false,
          "internalType": "string",
          "name": "studentId",
          "type": "string"
        },
        {
          "indexed": true,
          "internalType": "address",
          "name": "school",
          "type": "address"
        },
        {
          "indexed": false,
          "internalType": "string",
          "name": "degreeName",
          "type": "string"
        }
      ],
      "name": "DiplomaIssued",
      "type": "event"
    },
    {
      "anonymous": false,
      "inputs": [
        {
          "indexed": true,
          "internalType": "bytes32",
          "name": "certId",
          "type": "bytes32"
        },
        {
          "indexed": false,
          "internalType": "address",
          "name": "revokedBy",
          "type": "address"
        }
      ],
      "name": "DiplomaRevoked",
      "type": "event"
    },
    {
      "anonymous": false,
      "inputs": [
        {
          "indexed": true,
          "internalType": "address",
          "name": "school",
          "type": "address"
        },
        {
          "indexed": false,
          "internalType": "string",
          "name": "name",
          "type": "string"
        }
      ],
      "name": "SchoolAuthorized",
      "type": "event"
    },
    {
      "anonymous": false,
      "inputs": [
        {
          "indexed": true,
          "internalType": "address",
          "name": "school",
          "type": "address"
        }
      ],
      "name": "SchoolRevoked",
      "type": "event"
    },
    {
      "inputs": [
        {
          "internalType": "address",
          "name": "school",
          "type": "address"
        },
        {
          "internalType": "string",
          "name": "name",
          "type": "string"
        }
      ],
      "name": "authorizeSchool",
      "outputs": [],
      "stateMutability": "nonpayable",
      "type": "function"
    },
    {
      "inputs": [
        {
          "internalType": "address",
          "name": "",
          "type": "address"
        }
      ],
      "name": "authorizedSchools",
      "outputs": [
        {
          "internalType": "bool",
          "name": "",
          "type": "bool"
        }
      ],
      "stateMutability": "view",
      "type": "function"
    },
    {
      "inputs": [
        {
          "internalType": "bytes32",
          "name": "certId",
          "type": "bytes32"
        }
      ],
      "name": "getDiploma",
      "outputs": [
        {
          "components": [
            {
              "internalType": "bytes32",
              "name": "certId",
              "type": "bytes32"
            },
            {
              "internalType": "string",
              "name": "studentId",
              "type": "string"
            },
            {
              "internalType": "string",
              "name": "studentName",
              "type": "string"
            },
            {
              "internalType": "string",
              "name": "schoolName",
              "type": "string"
            },
            {
              "internalType": "string",
              "name": "degreeName",
              "type": "string"
            },
            {
              "internalType": "string",
              "name": "fieldOfStudy",
              "type": "string"
            },
            {
              "internalType": "string",
              "name": "ipfsHash",
              "type": "string"
            },
            {
              "internalType": "uint256",
              "name": "issueDate",
              "type": "uint256"
            },
            {
              "internalType": "address",
              "name": "issuedBy",
              "type": "address"
            },
            {
              "internalType": "bool",
              "name": "isRevoked",
              "type": "bool"
            }
          ],
          "internalType": "struct DiplomaRegistry.Diploma",
          "name": "",
          "type": "tuple"
        }
      ],
      "stateMutability": "view",
      "type": "function"
    },
    {
      "inputs": [
        {
          "internalType": "string",
          "name": "studentId",
          "type": "string"
        }
      ],
      "name": "getDiplomaCount",
      "outputs": [
        {
          "internalType": "uint256",
          "name": "",
          "type": "uint256"
        }
      ],
      "stateMutability": "view",
      "type": "function"
    },
    {
      "inputs": [
        {
          "internalType": "string",
          "name": "studentId",
          "type": "string"
        }
      ],
      "name": "getStudentDiplomas",
      "outputs": [
        {
          "internalType": "bytes32[]",
          "name": "",
          "type": "bytes32[]"
        }
      ],
      "stateMutability": "view",
      "type": "function"
    },
    {
      "inputs": [
        {
          "internalType": "string",
          "name": "studentId",
          "type": "string"
        },
        {
          "internalType": "string",
          "name": "studentName",
          "type": "string"
        },
        {
          "internalType": "string",
          "name": "degreeName",
          "type": "string"
        },
        {
          "internalType": "string",
          "name": "fieldOfStudy",
          "type": "string"
        },
        {
          "internalType": "string",
          "name": "ipfsHash",
          "type": "string"
        }
      ],
      "name": "issueDiploma",
      "outputs": [
        {
          "internalType": "bytes32",
          "name": "certId",
          "type": "bytes32"
        }
      ],
      "stateMutability": "nonpayable",
      "type": "function"
    },
    {
      "inputs": [],
      "name": "owner",
      "outputs": [
        {
          "internalType": "address",
          "name": "",
          "type": "address"
        }
      ],
      "stateMutability": "view",
      "type": "function"
    },
    {
      "inputs": [
        {
          "internalType": "bytes32",
          "name": "certId",
          "type": "bytes32"
        }
      ],
      "name": "revokeDiploma",
      "outputs": [],
      "stateMutability": "nonpayable",
      "type": "function"
    },
    {
      "inputs": [
        {
          "internalType": "address",
          "name": "school",
          "type": "address"
        }
      ],
      "name": "revokeSchoolAuthorization",
      "outputs": [],
      "stateMutability": "nonpayable",
      "type": "function"
    },
    {
      "inputs": [
        {
          "internalType": "address",
          "name": "",
          "type": "address"
        }
      ],
      "name": "schoolNames",
      "outputs": [
        {
          "internalType": "string",
          "name": "",
          "type": "string"
        }
      ],
      "stateMutability": "view",
      "type": "function"
    },
    {
      "inputs": [
        {
          "internalType": "address",
          "name": "newOwner",
          "type": "address"
        }
      ],
      "name": "transferOwnership",
      "outputs": [],
      "stateMutability": "nonpayable",
      "type": "function"
    },
    {
      "inputs": [
        {
          "internalType": "bytes32",
          "name": "certId",
          "type": "bytes32"
        }
      ],
      "name": "verifyDiploma",
      "outputs": [
        {
          "internalType": "bool",
          "name": "",
          "type": "bool"
        }
      ],
      "stateMutability": "view",
      "type": "function"
    }
  ],
  "bytecode": "0x6080806040523461002857600080546001600160a01b0319163317905561164e908161002e8239f35b600080fdfe6080604052600436101561001257600080fd5b60003560e01c80620b0932146111cb57806307798a911461118c5780632b04cb7714610f8c5780633b54f7e614610f4e57806349c8eba2146105a05780635a3cd9b4146103935780638da5cb5b1461036a578063b12a5e67146102ab578063c487da791461016e578063c57c01151461011c578063e89cc997146100f45763f2fde38b1461009f57600080fd5b346100ef5760203660031901126100ef576100b8611298565b600054906001600160a01b03906100d23383851614611438565b16906100df82151561147d565b6001600160a01b03191617600055005b600080fd5b346100ef5760203660031901126100ef5760206101126004356115ed565b6040519015158152f35b346100ef5760203660031901126100ef576001600160a01b0361013d611298565b16600052600460205261016a6101566040600020611392565b6040519182916020835260208301906112ae565b0390f35b346100ef576020806003193601126100ef5760043590816000526001815261019f60076040600020015415156115a8565b81600052600181526008604060002001805460ff8160a01c1661026657600054336001600160a01b039182161490811561025a575b50156102155760ff60a01b1916600160a01b1790556040513381527fdd567030ad206e93bf840ff755cd298cdc932eaebf384a4983ed73d00769584c9190a2005b60405162461bcd60e51b815260048101849052601860248201527f4e6f7420617574686f72697a656420746f207265766f6b6500000000000000006044820152606490fd5b905081163314856101d4565b60405162461bcd60e51b815260048101849052601760248201527f4469706c6f6d6120616c7265616479207265766f6b65640000000000000000006044820152606490fd5b346100ef576020806003193601126100ef576004356001600160401b0381116100ef576102df6102e59136906004016112ee565b90611530565b60405190818382549182815201908192600052846000209060005b8682821061035657868661031682880383611371565b604051928392818401908285525180915260408401929160005b82811061033f57505050500390f35b835185528695509381019392810192600101610330565b835485529093019260019283019201610300565b346100ef5760003660031901126100ef576000546040516001600160a01b039091168152602090f35b346100ef5760403660031901126100ef576103ac611298565b6001600160401b036024358181116100ef576103cc9036906004016112ee565b91909260018060a01b03906103e682600054163314611438565b16926103f384151561147d565b836000526020916003835260ff6040600020541661055b57846000526003835260406000206001908160ff198254161790556004845260406000209185116105455761044985610443845461131b565b846114bb565b6000601f86116001146104bc579185807fa8047077c2a450926551411009705e53244402b75fbd76b5e07a3b2cb73300ac979695936104ac956000936104b1575b501b906000198760031b1c19161790555b60405193838594855284019161150f565b0390a2005b85013592508a61048a565b601f1986169083600052856000209160005b81811061053057509187969593917fa8047077c2a450926551411009705e53244402b75fbd76b5e07a3b2cb73300ac986104ac969410610516575b505085811b01905561049b565b840135600019600389901b60f8161c191690558880610509565b868301358455928401929187019187016104ce565b634e487b7160e01b600052604160045260246000fd5b60405162461bcd60e51b815260048101849052601960248201527f5363686f6f6c20616c726561647920617574686f72697a6564000000000000006044820152606490fd5b346100ef5760a03660031901126100ef576004356001600160401b0381116100ef576105d09036906004016112ee565b906024356001600160401b0381116100ef576105f09036906004016112ee565b916044356001600160401b0381116100ef576106109036906004016112ee565b9190926064356001600160401b0381116100ef576106329036906004016112ee565b95906084356001600160401b0381116100ef576106539036906004016112ee565b909133600052600360205260ff6040600020541615610f09578915610ece578315610e91578615610e555760ff6106a08b60206040518281938c833781016005815203019020898b611549565b5416610e0157600654908a6040516106e26074826020810194808d873781013360601b6020820152426034820152876054820152036054810184520182611371565b519020996000198314610deb576107458c61073b8d9961076d996001610761980160065533600052600460205261072f8d6040600020956040519e8f61072781611355565b523691611562565b60208d01523691611562565b60408a0152611392565b6060880152610755368a8c611562565b60808801523691611562565b60a08501523691611562565b60c08201524260e082015233610100820152600061012082015284600052600160205260406000208151815560208201518051906001600160401b0382116105455781906107cb826107c2600187015461131b565b600187016114bb565b602090601f8311600114610d7957600092610d6e575b50508160011b916000199060031b1c19161760018201555b60408201518051906001600160401b03821161054557819061082b82610822600287015461131b565b600287016114bb565b602090601f8311600114610cfc57600092610cf1575b50508160011b916000199060031b1c19161760028201555b60608201518051906001600160401b03821161054557819061088b82610882600387015461131b565b600387016114bb565b602090601f8311600114610c7f57600092610c74575b50508160011b916000199060031b1c19161760038201555b60808201518051906001600160401b0382116105455781906108eb826108e2600487015461131b565b600487016114bb565b602090601f8311600114610c0257600092610bf7575b50508160011b916000199060031b1c19161760048201555b60a08201518051906001600160401b03821161054557819061094b82610942600587015461131b565b600587016114bb565b602090601f8311600114610b8557600092610b7a575b50508160011b916000199060031b1c19161760058201555b60c08201518051906001600160401b038211610545576109a9826109a0600686015461131b565b600686016114bb565b602090601f8311600114610b0757600893929160009183610afc575b50508160011b916000199060031b1c19161760068201555b60e08301516007820155019060018060a01b036101008201511682549161012060ff60a01b910151151560a01b16916affffffffffffffffffffff60a81b161717905560405185828237602081878101600281520301902090815495680100000000000000008710156105455760018701808455871015610ae657610adb8694856020997ff2797f1a5faf9a477147e309e9cdd11edbbf107dbb643a98a2c56a7b1e7c1613966000528a6000200155610aaa604051848682378a8186810160058152030190208289611549565b600160ff19825416179055610acc60405194859460408652604086019161150f565b908382038a850152339761150f565b0390a3604051908152f35b634e487b7160e01b600052603260045260246000fd5b015190508a806109c5565b906006840160005260206000209160005b601f1985168110610b62575091839160019360089695601f19811610610b49575b505050811b0160068201556109dd565b015160001960f88460031b161c191690558a8080610b39565b91926020600181928685015181550194019201610b18565b015190508980610961565b9250600584016000526020600020906000935b601f1984168510610bdc576001945083601f19811610610bc3575b505050811b016005820155610979565b015160001960f88460031b161c19169055898080610bb3565b81810151835560209485019460019093019290910190610b98565b015190508980610901565b9250600484016000526020600020906000935b601f1984168510610c59576001945083601f19811610610c40575b505050811b016004820155610919565b015160001960f88460031b161c19169055898080610c30565b81810151835560209485019460019093019290910190610c15565b0151905089806108a1565b9250600384016000526020600020906000935b601f1984168510610cd6576001945083601f19811610610cbd575b505050811b0160038201556108b9565b015160001960f88460031b161c19169055898080610cad565b81810151835560209485019460019093019290910190610c92565b015190508980610841565b9250600284016000526020600020906000935b601f1984168510610d53576001945083601f19811610610d3a575b505050811b016002820155610859565b015160001960f88460031b161c19169055898080610d2a565b81810151835560209485019460019093019290910190610d0f565b0151905089806107e1565b9250600184016000526020600020906000935b601f1984168510610dd0576001945083601f19811610610db7575b505050811b0160018201556107f9565b015160001960f88460031b161c19169055898080610da7565b81810151835560209485019460019093019290910190610d8c565b634e487b7160e01b600052601160045260246000fd5b60405162461bcd60e51b815260206004820152602660248201527f4469706c6f6d6120616c72656164792069737375656420666f7220746869732060448201526564656772656560d01b6064820152608490fd5b60405162461bcd60e51b8152602060048201526014602482015273111959dc9959481b985b59481c995c5d5a5c995960621b6044820152606490fd5b60405162461bcd60e51b815260206004820152601560248201527414dd1d59195b9d081b985b59481c995c5d5a5c9959605a1b6044820152606490fd5b60405162461bcd60e51b815260206004820152601360248201527214dd1d59195b9d081251081c995c5d5a5c9959606a1b6044820152606490fd5b60405162461bcd60e51b815260206004820152601860248201527f4e6f7420616e20617574686f72697a6564207363686f6f6c00000000000000006044820152606490fd5b346100ef5760203660031901126100ef576004356001600160401b0381116100ef57610f836102df60209236906004016112ee565b54604051908152f35b346100ef5760203660031901126100ef576004356000610120604051610fb181611355565b828152606060208201526060604082015260608082015260606080820152606060a0820152606060c08201528260e082015282610100820152015280600052600160205261100860076040600020015415156115a8565b6000526001602052604060002060ff60086040519261102684611355565b8054845261103660018201611392565b602085015261104760028201611392565b604085015261105860038201611392565b606085015261106960048201611392565b608085015261107a60058201611392565b60a085015261108b60068201611392565b60c0850152600781015460e0850152015460018060a01b03811661010084015260a01c1615156101208201526040518091602082528051602083015260208101516101206111606110ea610140938460408801526101608701906112ae565b61114b61113761112361110f604089015194601f1995868c83030160608d01526112ae565b6060890151858b83030160808c01526112ae565b6080880151848a83030160a08b01526112ae565b60a0870151838983030160c08a01526112ae565b9060c0860151908783030160e08801526112ae565b60e0840151610100868101919091528401516001600160a01b0316828601529201511515908301520390f35b346100ef5760203660031901126100ef576001600160a01b036111ad611298565b166000526003602052602060ff604060002054166040519015158152f35b346100ef5760203660031901126100ef576111e4611298565b6000546001600160a01b0391906111fe9083163314611438565b1680600052600360205260ff604060002054161561125357806000526003602052604060002060ff1981541690557fc693642ba16feaff6d4367ba911e06143fe4707457c48bd60de0fc470a5384aa600080a2005b60405162461bcd60e51b815260206004820152601860248201527f5363686f6f6c206973206e6f7420617574686f72697a656400000000000000006044820152606490fd5b600435906001600160a01b03821682036100ef57565b919082519283825260005b8481106112da575050826000602080949584010152601f8019910116010190565b6020818301810151848301820152016112b9565b9181601f840112156100ef578235916001600160401b0383116100ef57602083818601950101116100ef57565b90600182811c9216801561134b575b602083101461133557565b634e487b7160e01b600052602260045260246000fd5b91607f169161132a565b61014081019081106001600160401b0382111761054557604052565b90601f801991011681019081106001600160401b0382111761054557604052565b90604051918260008254926113a68461131b565b90818452600194858116908160001461141557506001146113d2575b50506113d092500383611371565b565b9093915060005260209081600020936000915b8183106113fd5750506113d0935082010138806113c2565b855488840185015294850194879450918301916113e5565b9150506113d094506020925060ff191682840152151560051b82010138806113c2565b1561143f57565b60405162461bcd60e51b81526020600482015260166024820152752737ba103a34329031b7b73a3930b1ba1037bbb732b960511b6044820152606490fd5b1561148457565b60405162461bcd60e51b815260206004820152600f60248201526e496e76616c6964206164647265737360881b6044820152606490fd5b90601f81116114c957505050565b600091825260208220906020601f850160051c83019410611505575b601f0160051c01915b8281106114fa57505050565b8181556001016114ee565b90925082906114e5565b908060209392818452848401376000828201840152601f01601f1916010190565b6020908260405193849283378101600281520301902090565b6020919283604051948593843782019081520301902090565b9291926001600160401b038211610545576040519161158b601f8201601f191660200184611371565b8294818452818301116100ef578281602093846000960137010152565b156115af57565b60405162461bcd60e51b8152602060048201526016602482015275111a5c1b1bdb5848191bd95cc81b9bdd08195e1a5cdd60521b6044820152606490fd5b60005260016020526040600020600781015415611612576008015460a01c60ff161590565b5060009056fea2646970667358221220dda9a396dee371f5e267875fff456e0ea9510ae8ce8f6bffc0de096330f255ba64736f6c63430008140033",
  "linkReferences": {},
  "deployedLinkReferences": {}
}