{
  "_format": "hh-sol-artifact-1",
  "contractName": "InternshipRegistry",
  "sourceName": "contracts/InternshipRegistry.sol",
  "abi": [
    {
      "inputs": [],
      "stateMutability": "nonpayable",
      "type": "constructor"
    },
    {
      "anonymous": false,
      "inputs": [
        {
          "indexed": true,
          "internalType": "bytes32",
          "name": "certId",
          "type": "bytes32"
        },
        {
          "indexed": false,
          "internalType": "string",
          "name": "studentId",
          "type": "string"
        },
        {
          "indexed": true,
          "internalType": "address",
          "name": "school",
          "type": "address"
        },
        {
          "indexed": false,
          "internalType": "string",
          "name": "companyName",
          "type": "string"
        }
      ],
      "name": "InternshipIssued",
      "type": "event"
    },
    {
      "anonymous": false,
      "inputs": [
        {
          "indexed": true,
          "internalType": "bytes32",
          "name": "certId",
          "type": "bytes32"
        },
        {
          "indexed": false,
          "internalType": "address",
          "name": "revokedBy",
          "type": "address"
        }
      ],
      "name": "InternshipRevoked",
      "type": "event"
    },
    {
      "anonymous": false,
      "inputs": [
        {
          "indexed": true,
          "internalType": "address",
          "name": "school",
          "type": "address"
        },
        {
          "indexed": false,
          "internalType": "string",
          "name": "name",
          "type": "string"
        }
      ],
      "name": "SchoolAuthorized",
      "type": "event"
    },
    {
      "anonymous": false,
      "inputs": [
        {
          "indexed": true,
          "internalType": "address",
          "name": "school",
          "type": "address"
        }
      ],
      "name": "SchoolRevoked",
      "type": "event"
    },
    {
      "inputs": [
        {
          "internalType": "address",
          "name": "school",
          "type": "address"
        },
        {
          "internalType": "string",
          "name": "name",
          "type": "string"
        }
      ],
      "name": "authorizeSchool",
      "outputs": [],
      "stateMutability": "nonpayable",
      "type": "function"
    },
    {
      "inputs": [
        {
          "internalType": "address",
          "name": "",
          "type": "address"
        }
      ],
      "name": "authorizedSchools",
      "outputs": [
        {
          "internalType": "bool",
          "name": "",
          "type": "bool"
        }
      ],
      "stateMutability": "view",
      "type": "function"
    },
    {
      "inputs": [
        {
          "internalType": "bytes32",
          "name": "certId",
          "type": "bytes32"
        }
      ],
      "name": "getCertificate",
      "outputs": [
        {
          "components": [
            {
              "internalType": "bytes32",
              "name": "certId",
              "type": "bytes32"
            },
            {
              "internalType": "string",
              "name": "studentId",
              "type": "string"
            },
            {
              "internalType": "string",
              "name": "studentName",
              "type": "string"
            },
            {
              "internalType": "string",
              "name": "schoolName",
              "type": "string"
            },
            {
              "internalType": "string",
              "name": "companyName",
              "type": "string"
            },
            {
              "internalType": "string",
              "name": "internshipRole",
              "type": "string"
            },
            {
              "internalType": "string",
              "name": "ipfsHash",
              "type": "string"
            },
            {
              "internalType": "uint256",
              "name": "startDate",
              "type": "uint256"
            },
            {
              "internalType": "uint256",
              "name": "endDate",
              "type": "uint256"
            },
            {
              "internalType": "uint256",
              "name": "issueDate",
              "type": "uint256"
            },
            {
              "internalType": "address",
              "name": "issuedBy",
              "type": "address"
            },
            {
              "internalType": "bool",
              "name": "isRevoked",
              "type": "bool"
            }
          ],
          "internalType": "struct InternshipRegistry.InternshipCertificate",
          "name": "",
          "type": "tuple"
        }
      ],
      "stateMutability": "view",
      "type": "function"
    },
    {
      "inputs": [
        {
          "internalType": "string",
          "name": "studentId",
          "type": "string"
        }
      ],
      "name": "getCertificateCount",
      "outputs": [
        {
          "internalType": "uint256",
          "name": "",
          "type": "uint256"
        }
      ],
      "stateMutability": "view",
      "type": "function"
    },
    {
      "inputs": [
        {
          "internalType": "string",
          "name": "studentId",
          "type": "string"
        }
      ],
      "name": "getStudentCertificates",
      "outputs": [
        {
          "internalType": "bytes32[]",
          "name": "",
          "type": "bytes32[]"
        }
      ],
      "stateMutability": "view",
      "type": "function"
    },
    {
      "inputs": [
        {
          "internalType": "string",
          "name": "studentId",
          "type": "string"
        },
        {
          "internalType": "string",
          "name": "studentName",
          "type": "string"
        },
        {
          "internalType": "string",
          "name": "companyName",
          "type": "string"
        },
        {
          "internalType": "string",
          "name": "internshipRole",
          "type": "string"
        },
        {
          "internalType": "string",
          "name": "ipfsHash",
          "type": "string"
        },
        {
          "internalType": "uint256",
          "name": "startDate",
          "type": "uint256"
        },
        {
          "internalType": "uint256",
          "name": "endDate",
          "type": "uint256"
        }
      ],
      "name": "issueInternship",
      "outputs": [
        {
          "internalType": "bytes32",
          "name": "certId",
          "type": "bytes32"
        }
      ],
      "stateMutability": "nonpayable",
      "type": "function"
    },
    {
      "inputs": [],
      "name": "owner",
      "outputs": [
        {
          "internalType": "address",
          "name": "",
          "type": "address"
        }
      ],
      "stateMutability": "view",
      "type": "function"
    },
    {
      "inputs": [
        {
          "internalType": "bytes32",
          "name": "certId",
          "type": "bytes32"
        }
      ],
      "name": "revokeCertificate",
      "outputs": [],
      "stateMutability": "nonpayable",
      "type": "function"
    },
    {
      "inputs": [
        {
          "internalType": "address",
          "name": "school",
          "type": "address"
        }
      ],
      "name": "revokeSchoolAuthorization",
      "outputs": [],
      "stateMutability": "nonpayable",
      "type": "function"
    },
    {
      "inputs": [
        {
          "internalType": "address",
          "name": "",
          "type": "address"
        }
      ],
      "name": "schoolNames",
      "outputs": [
        {
          "internalType": "string",
          "name": "",
          "type": "string"
        }
      ],
      "stateMutability": "view",
      "type": "function"
    },
    {
      "inputs": [
        {
          "internalType": "address",
          "name": "newOwner",
          "type": "address"
        }
      ],
      "name": "transferOwnership",
      "outputs": [],
      "stateMutability": "nonpayable",
      "type": "function"
    },
    {
      "inputs": [
        {
          "internalType": "bytes32",
          "name": "certId",
          "type": "bytes32"
        }
      ],
      "name": "verifyCertificate",
      "outputs": [
        {
          "internalType": "bool",
          "name": "",
          "type": "bool"
        }
      ],
      "stateMutability": "view",
      "type": "function"
    }
  ],
  "bytecode": "0x6080806040523461002857600080546001600160a01b03191633179055611761908161002e8239f35b600080fdfe6080604052600436101561001257600080fd5b60003560e01c80620b0932146112d757806307798a91146112985780630f0ae6201461125a578063572faf20146107da5780635a3cd9b4146105cd578063850c1768146105a55780638da5cb5b1461057c578063ade3de2c146104bd578063c57c01151461046b578063c6cbc52a1461032e578063f2fde38b146102de5763f333fe081461009f57600080fd5b346102d95760203660031901126102d95760043560006101606040516100c481611421565b828152606060208201526060604082015260608082015260606080820152606060a0820152606060c08201528260e0820152826101008201528261012082015282610140820152015280600052600160205261012960096040600020015415156116b4565b6000526001602052604060002060ff600a6040519261014784611421565b805484526101576001820161145e565b60208501526101686002820161145e565b60408501526101796003820161145e565b606085015261018a6004820161145e565b608085015261019b6005820161145e565b60a08501526101ac6006820161145e565b60c0850152600781015460e085015260088101546101008501526009810154610120850152015460018060a01b03811661014084015260a01c1615156101608201526040518091602082528051602083015261016061029561021f602084015161018060408701526101a0860190611504565b61028061026c610258610244604088015194601f1995868b83030160608c0152611504565b6060880151858a83030160808b0152611504565b6080870151848983030160a08a0152611504565b60a0860151838883030160c0890152611504565b9060c0850151908683030160e0870152611504565b9160e081015161010085015261010081015161012085015261012081015161014085015260018060a01b036101408201511682850152015115156101808301520390f35b600080fd5b346102d95760203660031901126102d9576102f76113a4565b600054906001600160a01b03906103113383851614611544565b169061031e821515611589565b6001600160a01b03191617600055005b346102d9576020806003193601126102d95760043590816000526001815261035f60096040600020015415156116b4565b8160005260018152600a604060002001805460ff8160a01c1661042657600054336001600160a01b039182161490811561041a575b50156103d55760ff60a01b1916600160a01b1790556040513381527fa8dfd75f60959bec3b1ce1677de2b710bc43a7ccbdae7bffe1158637b024595a9190a2005b60405162461bcd60e51b815260048101849052601860248201527f4e6f7420617574686f72697a656420746f207265766f6b6500000000000000006044820152606490fd5b90508116331485610394565b60405162461bcd60e51b815260048101849052601b60248201527f436572746966696361746520616c7265616479207265766f6b656400000000006044820152606490fd5b346102d95760203660031901126102d9576001600160a01b0361048c6113a4565b1660005260046020526104b96104a5604060002061145e565b604051918291602083526020830190611504565b0390f35b346102d9576020806003193601126102d9576004356001600160401b0381116102d9576104f16104f79136906004016113ba565b9061163c565b60405190818382549182815201908192600052846000209060005b868282106105685786866105288288038361143d565b604051928392818401908285525180915260408401929160005b82811061055157505050500390f35b835185528695509381019392810192600101610542565b835485529093019260019283019201610512565b346102d95760003660031901126102d9576000546040516001600160a01b039091168152602090f35b346102d95760203660031901126102d95760206105c3600435611700565b6040519015158152f35b346102d95760403660031901126102d9576105e66113a4565b6001600160401b036024358181116102d9576106069036906004016113ba565b91909260018060a01b039061062082600054163314611544565b169261062d841515611589565b836000526020916003835260ff6040600020541661079557846000526003835260406000206001908160ff1982541617905560048452604060002091851161077f576106838561067d84546113e7565b846115c7565b6000601f86116001146106f6579185807fa8047077c2a450926551411009705e53244402b75fbd76b5e07a3b2cb73300ac979695936106e6956000936106eb575b501b906000198760031b1c19161790555b60405193838594855284019161161b565b0390a2005b85013592508a6106c4565b601f1986169083600052856000209160005b81811061076a57509187969593917fa8047077c2a450926551411009705e53244402b75fbd76b5e07a3b2cb73300ac986106e6969410610750575b505085811b0190556106d5565b840135600019600389901b60f8161c191690558880610743565b86830135845592840192918701918701610708565b634e487b7160e01b600052604160045260246000fd5b60405162461bcd60e51b815260048101849052601960248201527f5363686f6f6c20616c726561647920617574686f72697a6564000000000000006044820152606490fd5b346102d95760e03660031901126102d9576004356001600160401b0381116102d95761080a9036906004016113ba565b906024356001600160401b0381116102d95761082a9036906004016113ba565b916044356001600160401b0381116102d95761084a9036906004016113ba565b91909260649485356001600160401b0381116102d95761086e9036906004016113ba565b96906084356001600160401b0381116102d95761088f9036906004016113ba565b91909233600052600360205260ff6040600020541615611218578a156111e05784156111a657871561116c57891561112a5760a43560c43511156110dc5760ff6108ef8c60206040518281938d8337810160058152030190208a8c611655565b54166110795750600654908a6040516109326074826020810194808d873781013360601b602082015242603482015287605482015203605481018452018261143d565b519020996000198314611063576109958c61098b8d996109bd9960016109b1980160065533600052600460205261097f8d6040600020956040519e8f61097781611421565b52369161166e565b60208d0152369161166e565b60408a015261145e565b60608801526109a5368a8c61166e565b6080880152369161166e565b60a0850152369161166e565b60c082015260a43560e082015260c4356101008201524261012082015233610140820152600061016082015284600052600160205260406000208151815560208201518051906001600160401b03821161077f578190610a2d82610a2460018701546113e7565b600187016115c7565b602090601f8311600114610ff157600092610fe6575b50508160011b916000199060031b1c19161760018201555b60408201518051906001600160401b03821161077f578190610a8d82610a8460028701546113e7565b600287016115c7565b602090601f8311600114610f7457600092610f69575b50508160011b916000199060031b1c19161760028201555b60608201518051906001600160401b03821161077f578190610aed82610ae460038701546113e7565b600387016115c7565b602090601f8311600114610ef757600092610eec575b50508160011b916000199060031b1c19161760038201555b60808201518051906001600160401b03821161077f578190610b4d82610b4460048701546113e7565b600487016115c7565b602090601f8311600114610e7a57600092610e6f575b50508160011b916000199060031b1c19161760048201555b60a08201518051906001600160401b03821161077f578190610bad82610ba460058701546113e7565b600587016115c7565b602090601f8311600114610dfd57600092610df2575b50508160011b916000199060031b1c19161760058201555b60c08201518051906001600160401b03821161077f57610c0b82610c0260068601546113e7565b600686016115c7565b602090601f8311600114610d7f57600a93929160009183610d74575b50508160011b916000199060031b1c19161760068201555b60e0830151600782015561010083015160088201556101208301516009820155019060018060a01b036101408201511682549161016060ff60a01b910151151560a01b16916affffffffffffffffffffff60a81b1617179055604051858282376020818781016002815203019020908154956801000000000000000087101561077f5760018701808455871015610d5e57610d538694856020997f27402b085adf369aa08e9a112a8a5a6be5d7143a44aa05ba1b6a87c727f60bc9966000528a6000200155610d22604051848682378a8186810160058152030190208289611655565b600160ff19825416179055610d4460405194859460408652604086019161161b565b908382038a850152339761161b565b0390a3604051908152f35b634e487b7160e01b600052603260045260246000fd5b015190508a80610c27565b906006840160005260206000209160005b601f1985168110610dda5750918391600193600a9695601f19811610610dc1575b505050811b016006820155610c3f565b015160001960f88460031b161c191690558a8080610db1565b91926020600181928685015181550194019201610d90565b015190508980610bc3565b9250600584016000526020600020906000935b601f1984168510610e54576001945083601f19811610610e3b575b505050811b016005820155610bdb565b015160001960f88460031b161c19169055898080610e2b565b81810151835560209485019460019093019290910190610e10565b015190508980610b63565b9250600484016000526020600020906000935b601f1984168510610ed1576001945083601f19811610610eb8575b505050811b016004820155610b7b565b015160001960f88460031b161c19169055898080610ea8565b81810151835560209485019460019093019290910190610e8d565b015190508980610b03565b9250600384016000526020600020906000935b601f1984168510610f4e576001945083601f19811610610f35575b505050811b016003820155610b1b565b015160001960f88460031b161c19169055898080610f25565b81810151835560209485019460019093019290910190610f0a565b015190508980610aa3565b9250600284016000526020600020906000935b601f1984168510610fcb576001945083601f19811610610fb2575b505050811b016002820155610abb565b015160001960f88460031b161c19169055898080610fa2565b81810151835560209485019460019093019290910190610f87565b015190508980610a43565b9250600184016000526020600020906000935b601f1984168510611048576001945083601f1981161061102f575b505050811b016001820155610a5b565b015160001960f88460031b161c1916905589808061101f565b81810151835560209485019460019093019290910190611004565b634e487b7160e01b600052601160045260246000fd5b60849075737375656420666f72207468697320636f6d70616e7960501b6040519162461bcd60e51b835260206004840152603660248401527f496e7465726e7368697020636572746966696361746520616c726561647920696044840152820152fd5b608490606560f81b6040519162461bcd60e51b835260206004840152602160248401527f456e642064617465206d757374206265206166746572207374617274206461746044840152820152fd5b60405162461bcd60e51b815260206004820152601860248201527f496e7465726e7368697020726f6c6520726571756972656400000000000000006044820152fd5b60405162461bcd60e51b815260206004820152601560248201527410dbdb5c185b9e481b985b59481c995c5d5a5c9959605a1b6044820152fd5b60405162461bcd60e51b815260206004820152601560248201527414dd1d59195b9d081b985b59481c995c5d5a5c9959605a1b6044820152fd5b60405162461bcd60e51b815260206004820152601360248201527214dd1d59195b9d081251081c995c5d5a5c9959606a1b6044820152fd5b60405162461bcd60e51b815260206004820152601860248201527f4e6f7420616e20617574686f72697a6564207363686f6f6c00000000000000006044820152fd5b346102d95760203660031901126102d9576004356001600160401b0381116102d95761128f6104f160209236906004016113ba565b54604051908152f35b346102d95760203660031901126102d9576001600160a01b036112b96113a4565b166000526003602052602060ff604060002054166040519015158152f35b346102d95760203660031901126102d9576112f06113a4565b6000546001600160a01b03919061130a9083163314611544565b1680600052600360205260ff604060002054161561135f57806000526003602052604060002060ff1981541690557fc693642ba16feaff6d4367ba911e06143fe4707457c48bd60de0fc470a5384aa600080a2005b60405162461bcd60e51b815260206004820152601860248201527f5363686f6f6c206973206e6f7420617574686f72697a656400000000000000006044820152606490fd5b600435906001600160a01b03821682036102d957565b9181601f840112156102d9578235916001600160401b0383116102d957602083818601950101116102d957565b90600182811c92168015611417575b602083101461140157565b634e487b7160e01b600052602260045260246000fd5b91607f16916113f6565b61018081019081106001600160401b0382111761077f57604052565b90601f801991011681019081106001600160401b0382111761077f57604052565b9060405191826000825492611472846113e7565b9081845260019485811690816000146114e1575060011461149e575b505061149c9250038361143d565b565b9093915060005260209081600020936000915b8183106114c957505061149c9350820101388061148e565b855488840185015294850194879450918301916114b1565b91505061149c94506020925060ff191682840152151560051b820101388061148e565b919082519283825260005b848110611530575050826000602080949584010152601f8019910116010190565b60208183018101518483018201520161150f565b1561154b57565b60405162461bcd60e51b81526020600482015260166024820152752737ba103a34329031b7b73a3930b1ba1037bbb732b960511b6044820152606490fd5b1561159057565b60405162461bcd60e51b815260206004820152600f60248201526e496e76616c6964206164647265737360881b6044820152606490fd5b90601f81116115d557505050565b600091825260208220906020601f850160051c83019410611611575b601f0160051c01915b82811061160657505050565b8181556001016115fa565b90925082906115f1565b908060209392818452848401376000828201840152601f01601f1916010190565b6020908260405193849283378101600281520301902090565b6020919283604051948593843782019081520301902090565b9291926001600160401b03821161077f5760405191611697601f8201601f19166020018461143d565b8294818452818301116102d9578281602093846000960137010152565b156116bb57565b60405162461bcd60e51b815260206004820152601a60248201527f436572746966696361746520646f6573206e6f742065786973740000000000006044820152606490fd5b6000526001602052604060002060098101541561172557600a015460a01c60ff161590565b5060009056fea2646970667358221220b2ca81f8c6dfc4e722c1b7e471156dbc51f137f6cc269238ffee389491afcd3164736f6c63430008140033",
  "linkReferences": {},
  "deployedLinkReferences": {}
}