{
  "_format": "hh-sol-artifact-1",
  "contractName": "StudyCertificateRegistry",
  "sourceName": "contracts/StudyCertificateRegistry.sol",
  "abi": [
    {
      "inputs": [],
      "stateMutability": "nonpayable",
      "type": "constructor"
    },
    {
      "anonymous": false,
      "inputs": [
        {
          "indexed": true,
          "internalType": "address",
          "name": "school",
          "type": "address"
        },
        {
          "indexed": false,
          "internalType": "string",
          "name": "name",
          "type": "string"
        }
      ],
      "name": "SchoolAuthorized",
      "type": "event"
    },
    {
      "anonymous": false,
      "inputs": [
        {
          "indexed": true,
          "internalType": "address",
          "name": "school",
          "type": "address"
        }
      ],
      "name": "SchoolRevoked",
      "type": "event"
    },
    {
      "anonymous": false,
      "inputs": [
        {
          "indexed": true,
          "internalType": "bytes32",
          "name": "certId",
          "type": "bytes32"
        },
        {
          "indexed": false,
          "internalType": "string",
          "name": "studentId",
          "type": "string"
        },
        {
          "indexed": true,
          "internalType": "address",
          "name": "school",
          "type": "address"
        },
        {
          "indexed": false,
          "internalType": "string",
          "name": "academicYear",
          "type": "string"
        }
      ],
      "name": "StudyCertificateIssued",
      "type": "event"
    },
    {
      "anonymous": false,
      "inputs": [
        {
          "indexed": true,
          "internalType": "bytes32",
          "name": "certId",
          "type": "bytes32"
        },
        {
          "indexed": false,
          "internalType": "address",
          "name": "revokedBy",
          "type": "address"
        }
      ],
      "name": "StudyCertificateRevoked",
      "type": "event"
    },
    {
      "inputs": [
        {
          "internalType": "address",
          "name": "school",
          "type": "address"
        },
        {
          "internalType": "string",
          "name": "name",
          "type": "string"
        }
      ],
      "name": "authorizeSchool",
      "outputs": [],
      "stateMutability": "nonpayable",
      "type": "function"
    },
    {
      "inputs": [
        {
          "internalType": "address",
          "name": "",
          "type": "address"
        }
      ],
      "name": "authorizedSchools",
      "outputs": [
        {
          "internalType": "bool",
          "name": "",
          "type": "bool"
        }
      ],
      "stateMutability": "view",
      "type": "function"
    },
    {
      "inputs": [
        {
          "internalType": "bytes32",
          "name": "certId",
          "type": "bytes32"
        }
      ],
      "name": "getCertificate",
      "outputs": [
        {
          "components": [
            {
              "internalType": "bytes32",
              "name": "certId",
              "type": "bytes32"
            },
            {
              "internalType": "string",
              "name": "studentId",
              "type": "string"
            },
            {
              "internalType": "string",
              "name": "studentName",
              "type": "string"
            },
            {
              "internalType": "string",
              "name": "schoolName",
              "type": "string"
            },
            {
              "internalType": "string",
              "name": "programName",
              "type": "string"
            },
            {
              "internalType": "string",
              "name": "academicYear",
              "type": "string"
            },
            {
              "internalType": "string",
              "name": "certificateType",
              "type": "string"
            },
            {
              "internalType": "string",
              "name": "ipfsHash",
              "type": "string"
            },
            {
              "internalType": "uint256",
              "name": "issueDate",
              "type": "uint256"
            },
            {
              "internalType": "address",
              "name": "issuedBy",
              "type": "address"
            },
            {
              "internalType": "bool",
              "name": "isRevoked",
              "type": "bool"
            }
          ],
          "internalType": "struct StudyCertificateRegistry.StudyCertificate",
          "name": "",
          "type": "tuple"
        }
      ],
      "stateMutability": "view",
      "type": "function"
    },
    {
      "inputs": [
        {
          "internalType": "string",
          "name": "studentId",
          "type": "string"
        }
      ],
      "name": "getCertificateCount",
      "outputs": [
        {
          "internalType": "uint256",
          "name": "",
          "type": "uint256"
        }
      ],
      "stateMutability": "view",
      "type": "function"
    },
    {
      "inputs": [
        {
          "internalType": "string",
          "name": "studentId",
          "type": "string"
        }
      ],
      "name": "getStudentCertificates",
      "outputs": [
        {
          "internalType": "bytes32[]",
          "name": "",
          "type": "bytes32[]"
        }
      ],
      "stateMutability": "view",
      "type": "function"
    },
    {
      "inputs": [
        {
          "internalType": "string",
          "name": "studentId",
          "type": "string"
        },
        {
          "internalType": "string",
          "name": "studentName",
          "type": "string"
        },
        {
          "internalType": "string",
          "name": "programName",
          "type": "string"
        },
        {
          "internalType": "string",
          "name": "academicYear",
          "type": "string"
        },
        {
          "internalType": "string",
          "name": "certificateType",
          "type": "string"
        },
        {
          "internalType": "string",
          "name": "ipfsHash",
          "type": "string"
        }
      ],
      "name": "issueStudyCertificate",
      "outputs": [
        {
          "internalType": "bytes32",
          "name": "certId",
          "type": "bytes32"
        }
      ],
      "stateMutability": "nonpayable",
      "type": "function"
    },
    {
      "inputs": [],
      "name": "owner",
      "outputs": [
        {
          "internalType": "address",
          "name": "",
          "type": "address"
        }
      ],
      "stateMutability": "view",
      "type": "function"
    },
    {
      "inputs": [
        {
          "internalType": "bytes32",
          "name": "certId",
          "type": "bytes32"
        }
      ],
      "name": "revokeCertificate",
      "outputs": [],
      "stateMutability": "nonpayable",
      "type": "function"
    },
    {
      "inputs": [
        {
          "internalType": "address",
          "name": "school",
          "type": "address"
        }
      ],
      "name": "revokeSchoolAuthorization",
      "outputs": [],
      "stateMutability": "nonpayable",
      "type": "function"
    },
    {
      "inputs": [
        {
          "internalType": "address",
          "name": "",
          "type": "address"
        }
      ],
      "name": "schoolNames",
      "outputs": [
        {
          "internalType": "string",
          "name": "",
          "type": "string"
        }
      ],
      "stateMutability": "view",
      "type": "function"
    },
    {
      "inputs": [
        {
          "internalType": "address",
          "name": "newOwner",
          "type": "address"
        }
      ],
      "name": "transferOwnership",
      "outputs": [],
      "stateMutability": "nonpayable",
      "type": "function"
    },
    {
      "inputs": [
        {
          "internalType": "bytes32",
          "name": "certId",
          "type": "bytes32"
        }
      ],
      "name": "verifyCertificate",
      "outputs": [
        {
          "internalType": "bool",
          "name": "",
          "type": "bool"
        }
      ],
      "stateMutability": "view",
      "type": "function"
    }
  ],
  "bytecode": "0x6080806040523461002857600080546001600160a01b031916331790556118a7908161002e8239f35b600080fdfe6080604052600436101561001257600080fd5b60003560e01c80620b09321461140857806307798a91146113c95780630f0ae6201461138b578063344c0027146107d35780635a3cd9b4146105c6578063850c17681461059e5780638da5cb5b14610575578063ade3de2c146104b6578063c57c011514610464578063c6cbc52a14610327578063f2fde38b146102d75763f333fe081461009f57600080fd5b346102d25760203660031901126102d25760043560006101406040516100c481611552565b828152606060208201526060604082015260608082015260606080820152606060a0820152606060c0820152606060e08201528261010082015282610120820152015280600052600160205261012360086040600020015415156117fa565b6000526001602052604060002060ff60096040519261014184611552565b805484526101516001820161158f565b60208501526101626002820161158f565b60408501526101736003820161158f565b60608501526101846004820161158f565b60808501526101956005820161158f565b60a08501526101a66006820161158f565b60c08501526101b76007820161158f565b60e08501526008810154610100850152015460018060a01b03811661012084015260a01c161515610140820152604051809160208252805160208301526101406102a361021560208401516101606040870152610180860190611658565b61028d61027961026561025161023d604089015195601f1996878c83030160608d0152611658565b6060890151868b83030160808c0152611658565b6080880151858a83030160a08b0152611658565b60a0870151848983030160c08a0152611658565b60c0860151838883030160e0890152611658565b9060e08501519086830301610100870152611658565b610100830151610120858101919091528301516001600160a01b03168285015291015115156101608301520390f35b600080fd5b346102d25760203660031901126102d2576102f06114d5565b600054906001600160a01b039061030a338385161461167d565b16906103178215156116c2565b6001600160a01b03191617600055005b346102d2576020806003193601126102d25760043590816000526001815261035860086040600020015415156117fa565b81600052600181526009604060002001805460ff8160a01c1661041f57600054336001600160a01b0391821614908115610413575b50156103ce5760ff60a01b1916600160a01b1790556040513381527f53191db7ae9476b4c22ecf521fd38e7e67f8bc48ddc11b9bf1ef1a5a98f982d89190a2005b60405162461bcd60e51b815260048101849052601860248201527f4e6f7420617574686f72697a656420746f207265766f6b6500000000000000006044820152606490fd5b9050811633148561038d565b60405162461bcd60e51b815260048101849052601b60248201527f436572746966696361746520616c7265616479207265766f6b656400000000006044820152606490fd5b346102d25760203660031901126102d2576001600160a01b036104856114d5565b1660005260046020526104b261049e604060002061158f565b604051918291602083526020830190611658565b0390f35b346102d2576020806003193601126102d2576004356001600160401b0381116102d2576104ea6104f09136906004016114eb565b90611775565b60405190818382549182815201908192600052846000209060005b868282106105615786866105218288038361156e565b604051928392818401908285525180915260408401929160005b82811061054a57505050500390f35b83518552869550938101939281019260010161053b565b83548552909301926001928301920161050b565b346102d25760003660031901126102d2576000546040516001600160a01b039091168152602090f35b346102d25760203660031901126102d25760206105bc600435611846565b6040519015158152f35b346102d25760403660031901126102d2576105df6114d5565b6001600160401b036024358181116102d2576105ff9036906004016114eb565b91909260018060a01b03906106198260005416331461167d565b16926106268415156116c2565b836000526020916003835260ff6040600020541661078e57846000526003835260406000206001908160ff198254161790556004845260406000209185116107785761067c856106768454611518565b84611700565b6000601f86116001146106ef579185807fa8047077c2a450926551411009705e53244402b75fbd76b5e07a3b2cb73300ac979695936106df956000936106e4575b501b906000198760031b1c19161790555b604051938385948552840191611754565b0390a2005b85013592508a6106bd565b601f1986169083600052856000209160005b81811061076357509187969593917fa8047077c2a450926551411009705e53244402b75fbd76b5e07a3b2cb73300ac986106df969410610749575b505085811b0190556106ce565b840135600019600389901b60f8161c19169055888061073c565b86830135845592840192918701918701610701565b634e487b7160e01b600052604160045260246000fd5b60405162461bcd60e51b815260048101849052601960248201527f5363686f6f6c20616c726561647920617574686f72697a6564000000000000006044820152606490fd5b346102d25760c03660031901126102d2576004356001600160401b0381116102d2576108039036906004016114eb565b6024356001600160401b0381116102d2576108229036906004016114eb565b926044356001600160401b0381116102d2576108429036906004016114eb565b9390916064356001600160401b0381116102d2576108649036906004016114eb565b9290946084356001600160401b0381116102d2576108869036906004016114eb565b98909560a4356001600160401b0381116102d2576108a89036906004016114eb565b909133600052600360205260ff604060002054161561134657851561130b5783156112ce578a15611291578715611253578b1561120e5760ff6109348a8a8f60208f61092f928d8f8490826040519384928337810160058152030190209581866040519788958787013784019185830160008152370160008382015203808452018261156e565b61178e565b54166111af57600654906040516020810190888a83376109766074828b81013360601b602082015242603482015287605482015203605481018452018261156e565b5190209b6000198314611199576109d9886109cf8f99610a11996109c38e60016109e59a016006553360005260046020526040600020956040519e8f6109bb81611552565b5236916117b4565b60208d015236916117b4565b60408a015261158f565b606088015236916117b4565b60808501526109f536888b6117b4565b60a0850152610a05368c8a6117b4565b60c085015236916117b4565b60e08201524261010082015233610120820152600061014082015286600052600160205260406000208151815560208201518051906001600160401b038211610778578190610a7082610a676001870154611518565b60018701611700565b602090601f83116001146111275760009261111c575b50508160011b916000199060031b1c19161760018201555b60408201518051906001600160401b038211610778578190610ad082610ac76002870154611518565b60028701611700565b602090601f83116001146110aa5760009261109f575b50508160011b916000199060031b1c19161760028201555b60608201518051906001600160401b038211610778578190610b3082610b276003870154611518565b60038701611700565b602090601f831160011461102d57600092611022575b50508160011b916000199060031b1c19161760038201555b60808201518051906001600160401b038211610778578190610b9082610b876004870154611518565b60048701611700565b602090601f8311600114610fb057600092610fa5575b50508160011b916000199060031b1c19161760048201555b60a08201518051906001600160401b038211610778578190610bf082610be76005870154611518565b60058701611700565b602090601f8311600114610f3357600092610f28575b50508160011b916000199060031b1c19161760058201555b60c08201518051906001600160401b038211610778578190610c5082610c476006870154611518565b60068701611700565b602090601f8311600114610eb657600092610eab575b50508160011b916000199060031b1c19161760068201555b60e08201518051906001600160401b03821161077857610cae82610ca56007860154611518565b60078601611700565b602090601f8311600114610e3857600993929160009183610e2d575b50508160011b916000199060031b1c19161760078201555b6101008301516008820155019060018060a01b036101208201511682549161014060ff60a01b910151151560a01b16916affffffffffffffffffffff60a81b161717905560405181838237602081838101600281520301902096875493680100000000000000008510156107785760018501808a55851015610e1757610ddb88968261092f60208b610e0c97829f7fd0c916b4a290e13928f448f3e9282a58009790fe0ac5e6c35c83744de62ab3f79c8e916000528460002001556040518a8c823783818c810160058152030190209560405195869385850137818984019185830160008152370160008382015203808452018261156e565b600160ff19825416179055610dfd604051948594604086526040860191611754565b908382038a8501523397611754565b0390a3604051908152f35b634e487b7160e01b600052603260045260246000fd5b015190508c80610cca565b906007840160005260206000209160005b601f1985168110610e93575091839160019360099695601f19811610610e7a575b505050811b016007820155610ce2565b015160001960f88460031b161c191690558c8080610e6a565b91926020600181928685015181550194019201610e49565b015190508b80610c66565b9250600684016000526020600020906000935b601f1984168510610f0d576001945083601f19811610610ef4575b505050811b016006820155610c7e565b015160001960f88460031b161c191690558b8080610ee4565b81810151835560209485019460019093019290910190610ec9565b015190508b80610c06565b9250600584016000526020600020906000935b601f1984168510610f8a576001945083601f19811610610f71575b505050811b016005820155610c1e565b015160001960f88460031b161c191690558b8080610f61565b81810151835560209485019460019093019290910190610f46565b015190508b80610ba6565b9250600484016000526020600020906000935b601f1984168510611007576001945083601f19811610610fee575b505050811b016004820155610bbe565b015160001960f88460031b161c191690558b8080610fde565b81810151835560209485019460019093019290910190610fc3565b015190508b80610b46565b9250600384016000526020600020906000935b601f1984168510611084576001945083601f1981161061106b575b505050811b016003820155610b5e565b015160001960f88460031b161c191690558b808061105b565b81810151835560209485019460019093019290910190611040565b015190508b80610ae6565b9250600284016000526020600020906000935b601f1984168510611101576001945083601f198116106110e8575b505050811b016002820155610afe565b015160001960f88460031b161c191690558b80806110d8565b818101518355602094850194600190930192909101906110bd565b015190508b80610a86565b9250600184016000526020600020906000935b601f198416851061117e576001945083601f19811610611165575b505050811b016001820155610a9e565b015160001960f88460031b161c191690558b8080611155565b8181015183556020948501946001909301929091019061113a565b634e487b7160e01b600052601160045260246000fd5b60405162461bcd60e51b815260206004820152603160248201527f436572746966696361746520616c72656164792069737375656420666f722074604482015270686973207965617220616e64207479706560781b6064820152608490fd5b60405162461bcd60e51b815260206004820152601960248201527f43657274696669636174652074797065207265717569726564000000000000006044820152606490fd5b60405162461bcd60e51b81526020600482015260166024820152751058d859195b5a58c81e59585c881c995c5d5a5c995960521b6044820152606490fd5b60405162461bcd60e51b8152602060048201526015602482015274141c9bd9dc985b481b985b59481c995c5d5a5c9959605a1b6044820152606490fd5b60405162461bcd60e51b815260206004820152601560248201527414dd1d59195b9d081b985b59481c995c5d5a5c9959605a1b6044820152606490fd5b60405162461bcd60e51b815260206004820152601360248201527214dd1d59195b9d081251081c995c5d5a5c9959606a1b6044820152606490fd5b60405162461bcd60e51b815260206004820152601860248201527f4e6f7420616e20617574686f72697a6564207363686f6f6c00000000000000006044820152606490fd5b346102d25760203660031901126102d2576004356001600160401b0381116102d2576113c06104ea60209236906004016114eb565b54604051908152f35b346102d25760203660031901126102d2576001600160a01b036113ea6114d5565b166000526003602052602060ff604060002054166040519015158152f35b346102d25760203660031901126102d2576114216114d5565b6000546001600160a01b03919061143b908316331461167d565b1680600052600360205260ff604060002054161561149057806000526003602052604060002060ff1981541690557fc693642ba16feaff6d4367ba911e06143fe4707457c48bd60de0fc470a5384aa600080a2005b60405162461bcd60e51b815260206004820152601860248201527f5363686f6f6c206973206e6f7420617574686f72697a656400000000000000006044820152606490fd5b600435906001600160a01b03821682036102d257565b9181601f840112156102d2578235916001600160401b0383116102d257602083818601950101116102d257565b90600182811c92168015611548575b602083101461153257565b634e487b7160e01b600052602260045260246000fd5b91607f1691611527565b61016081019081106001600160401b0382111761077857604052565b90601f801991011681019081106001600160401b0382111761077857604052565b90604051918260008254926115a384611518565b90818452600194858116908160001461161257506001146115cf575b50506115cd9250038361156e565b565b9093915060005260209081600020936000915b8183106115fa5750506115cd935082010138806115bf565b855488840185015294850194879450918301916115e2565b9150506115cd94506020925060ff191682840152151560051b82010138806115bf565b60005b8381106116485750506000910152565b8181015183820152602001611638565b9060209161167181518092818552858086019101611635565b601f01601f1916010190565b1561168457565b60405162461bcd60e51b81526020600482015260166024820152752737ba103a34329031b7b73a3930b1ba1037bbb732b960511b6044820152606490fd5b156116c957565b60405162461bcd60e51b815260206004820152600f60248201526e496e76616c6964206164647265737360881b6044820152606490fd5b90601f811161170e57505050565b600091825260208220906020601f850160051c8301941061174a575b601f0160051c01915b82811061173f57505050565b818155600101611733565b909250829061172a565b908060209392818452848401376000828201840152601f01601f1916010190565b6020908260405193849283378101600281520301902090565b6020906117a8928260405194838680955193849201611635565b82019081520301902090565b9291926001600160401b03821161077857604051916117dd601f8201601f19166020018461156e565b8294818452818301116102d2578281602093846000960137010152565b1561180157565b60405162461bcd60e51b815260206004820152601a60248201527f436572746966696361746520646f6573206e6f742065786973740000000000006044820152606490fd5b6000526001602052604060002060088101541561186b576009015460a01c60ff161590565b5060009056fea2646970667358221220885ebe785e41ba9bf0d1d7edf45a64c812649a8164a94dd28243f39edf3cb22b64736f6c63430008140033",
  "linkReferences": {},
  "deployedLinkReferences": {}
}